:1000000014C026C025C024C023C022C021C020C0E7
:100010001FC01EC01DC01CC01BC01AC019C018C004
:1000200017C016C015C014C013C011241FBECFE5E1
:10003000D1E0DEBFCDBF10E0A0E6B0E0ECE7F3E03A
:1000400002C005900D92A436B107D9F758D094C1DB
:10005000D7CFDC0150E040E04A175B070CF0089571
:1000600098B39F6098BB30E020E02617370759F41B
:1000700098B3907F98BBF0E0E0E02E173F0761F463
:100080004F5F5F4FE9CF8FEC97E00197F1F700C02A
:1000900000002F5F3F4FE9CF8FEC97E00197F1F71A
:1000A00000C000003196E9CF48B321E030E0F9010B
:1000B00002C0EE0FFF1F8A95E2F7CF014E2B48BB1F
:1000C00030E020E02617370729F498B3809589237C
:1000D00088BB0895EFECF7E03197F1F700C000001E
:1000E0002F5F3F4FEFCF46B321E030E0B90102C0B0
:1000F000660F771F8A95E2F7CB0184230895CF938B
:10010000DF93CDB7DEB764970FB6F894DEBF0FBEAE
:10011000CDBF87B38F6087BB87B38F7087BB88B332
:100120008F7088BBB49906C0B59904C0B69902C057
:10013000B79BF8CF64EF71E082E090E08ADF6E0158
:1001400029E0C20ED11C84E0A82EB12C8E010F5FD5
:100150001F4F7801ABD0B50138D0F701819391934F
:100160007F01EC15FD05B1F7F80180810E5F1F4F8F
:1001700060ED77E099DFFFEF24E38CE0F150204061
:100180008040E1F700C000000E151F0569F7B49B21
:1001900014C0C09AB59B13C0C19AB69B12C0C29A34
:1001A000B79B11C0C39A9FE7E8E3F1E09150E040AC
:1001B000F040E1F700C00000C9CFC098EBCFC19874
:1001C000ECCFC298EDCFC398EECF97FB072E16F475
:1001D000009406D077FD08D00BD007FC05D03EF484
:1001E000909581959F4F0895709561957F4F0895E3
:1001F000AA1BBB1B51E107C0AA1FBB1FA617B7074D
:1002000010F0A61BB70B881F991F5A95A9F7809568
:100210009095BC01CD0108958F929F92AF92BF92AD
:10022000CF92DF92EF92FF92CF93DF93EC01688140
:1002300079818A819B81611571058105910521F480
:1002400064E279ED8BE597E02DE133EF41E050E09A
:1002500055D049015A0127EA31E440E050E035D059
:100260006B017C012CEE34EF4FEF5FEFC501B40161
:100270002CD0DC01CB018C0D9D1DAE1DBF1DB7FF29
:1002800003C00197A109B04888839983AA83BB83DF
:100290009F77DF91CF91FF90EF90DF90CF90BF904D
:1002A000AF909F908F900895B7DF089580E690E01B
:1002B000B3DF0895B0E0A0E0809360009093610008
:1002C000A0936200B09363000895EE27FF27AA274A
:1002D000BB2708C0A20FB31FE41FF51F220F331F57
:1002E000441F551F969587957795679598F37040AD
:1002F000A9F7009799F7BD01CF010895052E97FB47
:1003000016F400940FD057FD05D014D007FC02D08E
:1003100046F408C050954095309521953F4F4F4F7A
:100320005F4F089590958095709561957F4F8F4FA1
:100330009F4F0895A1E21A2EAA1BBB1BFD010DC001
:10034000AA1FBB1FEE1FFF1FA217B307E407F50785
:1003500020F0A21BB30BE40BF50B661F771F881F61
:10036000991F1A9469F760957095809590959B01F7
:0C037000AC01BD01CF010895F894FFCF4F
:04037C00010000007C
:00000001FF
