:1000000014C026C025C024C023C022C021C020C0E7
:100010001FC01EC01DC01CC01BC01AC019C018C004
:1000200017C016C015C014C013C011241FBECFE5E1
:10003000D1E0DEBFCDBF10E0A0E6B0E0ECEEF3E033
:1000400002C005900D92A436B107D9F75CD0CCC19F
:10005000D7CF009709F40895EFECF7E03197F1F767
:1000600000C000000197F5CFEF92FF920F931F930E
:10007000CF93DF937C018B01D0E0C0E0CE15DF058C
:100080003CF0DF91CF911F910F91FF90EF90089579
:1000900088B38F6088BBC801DCDF88B3807F88BBF2
:1000A000C801D7DF2196EACFCF93DF9398B3C1E0A1
:1000B000D0E001C0CC0F8A95EAF79C2B98BBCB010E
:1000C000C8DF88B3C095C823C8BBDF91CF9108951E
:1000D000CF9326B330E0082E02C0359527950A94B9
:1000E000E2F720FF0EC0C82F82E390E0B2DF86B3B4
:1000F00090E002C095958795CA95E2F78170CF91FF
:10010000089580E0FCCFCF93DF93CDB7DEB764973F
:100110000FB6F894DEBF0FBECDBF87B38F6087BB2D
:1001200087B38F7087BB88B38F7088BB84E0D0DFC4
:1001300081110CC085E0CCDF811108C086E0C8DFEA
:10014000811104C087E0C4DF882381F368EE73E087
:1001500082E090E089DF00ED17E094E0E92EF12CD9
:1001600024E0622E712CCE0101966C014C01B12C61
:10017000A12CD4D0B30161D0F401819391934F01AC
:10018000FFEFAF1ABF0AEA14FB0499F74601B12C3E
:10019000A12CF4018081F2E08F0E911CB80184DF64
:1001A00088EE93E056DFC5010196E816F906A1F442
:1001B000912C812C84E08CDF8111FCCF85E088DFDD
:1001C00081110CC086E084DF81111BC087E080DFD5
:1001D000882381F383E003C05C01DBCF81E0F6017B
:1001E000219131916F018217130669F068EE73E077
:1001F00083E090E039DF84E0E82EF12C00ED17E099
:10020000B2CF82E0ECCF88E592E023DFFFEF8F1AD8
:100210009F0AE814F90471F6750182E0E80EF11CFA
:10022000085C1109083C110514F408EC10E068EEB4
:1002300073E082E090E018DF96CF97FB072E16F46C
:10024000009406D077FD08D00BD007FC05D03EF413
:10025000909581959F4F0895709561957F4F089572
:10026000AA1BBB1B51E107C0AA1FBB1FA617B707DC
:1002700010F0A61BB70B881F991F5A95A9F78095F8
:100280009095BC01CD0108958F929F92AF92BF923D
:10029000CF92DF92EF92FF92CF93DF93EC016881D0
:1002A00079818A819B81611571058105910521F410
:1002B00064E279ED8BE597E02DE133EF41E050E02A
:1002C00055D049015A0127EA31E440E050E035D0E9
:1002D0006B017C012CEE34EF4FEF5FEFC501B401F1
:1002E0002CD0DC01CB018C0D9D1DAE1DBF1DB7FFB9
:1002F00003C00197A109B04888839983AA83BB836F
:100300009F77DF91CF91FF90EF90DF90CF90BF90DC
:10031000AF909F908F900895B7DF089580E690E0AA
:10032000B3DF0895B0E0A0E0809360009093610097
:10033000A0936200B09363000895EE27FF27AA27D9
:10034000BB2708C0A20FB31FE41FF51F220F331FE6
:10035000441F551F969587957795679598F370403C
:10036000A9F7009799F7BD01CF010895052E97FBD6
:1003700016F400940FD057FD05D014D007FC02D01E
:1003800046F408C050954095309521953F4F4F4F0A
:100390005F4F089590958095709561957F4F8F4F31
:1003A0009F4F0895A1E21A2EAA1BBB1BFD010DC091
:1003B000AA1FBB1FEE1FFF1FA217B307E407F50715
:1003C00020F0A21BB30BE40BF50B661F771F881FF1
:1003D000991F1A9469F760957095809590959B0187
:0C03E000AC01BD01CF010895F894FFCFDF
:0403EC00010000000C
:00000001FF
